:020000040800F2
:10000000207500249D040008158B0008997F0008C6
:10001000118B0008A51A0008E5CF000800000000B9
:10002000000000000000000000000000DD030008E8
:10003000171E00080000000039040008999200080B
:10004000B7040008B7040008B7040008B7040008A4
:10005000B7040008B7040008191E0008B704000818
:10006000B7040008B7040008B7040008B704000884
:10007000B7040008B7040008B7040008B704000874
:10008000B7040008B7040008B7040008B704000864
:10009000B7040008B7040008B7040008371E0008BA
:1000A000B704000875940008B7040008B7040008F6
:1000B0008594000895940008A5940008B7040008EA
:1000C000B7040008B7040008B7040008B704000824
:1000D000B704000845A7000855A70008B7040008A2
:1000E000231E0008B704000800000000B704000841
:1000F000B7040008B7040008B7040008B7040008F4
:10010000B7040008B7040008B7040008B7040008E3
:10011000B7040008B7040008B7040008B7040008D3
:10012000B7040008B7040008B7040008B7040008C3
:10013000B7040008B7040008B7040008B7040008B3
:1001400000000000000000000000000000000000AF
:10015000B7040008B7040008B7040008B704000893
:10016000B7040008B7040008298B0008198B0008A1
:10017000B7040008398B0008B7040008B70400086A
:10018000B7040008B7040008B7040008B704000863
:10019000B7040008B7040008B7040008B704000853
:1001A000B7040008B7040008B70400080000000006
:1001B000B7040008B7040008B7040008B704000833
:1001C000B7040008B70400080000000000000000A9
:1001D0000000000000000000B7040008000000005C
:1001E000000000000000000000000000000000000F
:1001F0000000000000000000B7040008B704000879
:10020000B7040008B704000800000000B7040008A5
:10021000B7040008B7040008B7040008B7040008D2
:10022000B704000800000000B70400080000000048
:10023000B7040008B704000800000000B704000875
:10024000B7040008951A0008B7040008B7040008AE
:10025000B7040008B7040008B7040008B704000892
:10026000B7040008B7040008B7040008B704000882
:10027000B7040008B7040008B70400080000000035
:10028000B7040008B7040008B7040008B704000862
:1002900000000000B7040008B7040008B704000815
:1002A000B7040008B7040008B7040008B704000842
:1002B000B7040008B7040008B7040008B704000832
:1002C000B7040008B7040008B704000800F002F8FB
:1002D00000F075F80AA090E8000C82448344AAF16B
:1002E0000107DA4501D100F06AF8AFF2090EBAE869
:1002F0000F0013F0010F18BFFB1A43F0010318475A
:10030000C42E0100E42E01000A444FF0000C10F846
:10031000013B13F0070408BF10F8014B1D1108BF83
:1003200010F8015B641E05D010F8016B641E01F823
:10033000016BF9D113F0080F1EBF10F8014BAD1C73
:100340000C1B09D16D1E58BF01F801CBFAD505E091
:1003500014F8016B01F8016B6D1EF9D59142D6D3EB
:10036000704700000023002400250026103A28BF13
:1003700078C1FBD8520728BF30C148BF0B60704717
:1003800066290EF08B80642900F05C81782900F0EA
:100390009581002070471FB50EF07BF800F000FE3D
:1003A0000400002000210EF019F8401C60600020BD
:1003B00000210DF0FDFFE0601FBD10B510BD00F085
:1003C00037FF1146FFF7E7FF0CF0E6FE00F063FF92
:1003D00003B4FFF7F2FF03BC00F09AFF2C4B19683F
:1003E0000868B0E8F04F80F30988BFF36F8F4FF0D3
:1003F000000080F311887047000000000848006882
:10040000006880F308884FF0000080F3148862B61B
:1004100061B6BFF34F8FBFF36F8F00DF00BF00BF28
:1004200008ED00E0DFF80C00016841F470010160A4
:10043000704700BF88ED00E0EFF30980BFF36F8FD6
:10044000134B1A681EF0100F08BF20ED108A20E928
:10045000F04F106009B44FF0500080F31188BFF3E3
:100460004F8FBFF36F8F0DF0F3FC4FF0000080F360
:10047000118809BC19680868B0E8F04F1EF0100F29
:1004800008BFB0EC108A80F30988BFF36F8F704704
:10049000B0010024EFF30580704700000948804751
:1004A00009480047FEE7FEE7FEE7FEE7FEE7FEE756
:1004B000FEE7FEE7FEE7FEE704480549054A064B6E
:1004C0007047000095930008CD02000820550024D5
:1004D00020750024206500242065002453EA020CC6
:1004E00000F069802DE9F04B4FF00006002B1FBF94
:1004F000B3FA83F503FA05F424FA05F65E4012BF59
:100500001643B2FA82F502FA05F4C5F120051EBFC2
:1005100022FA05FC44EA0C04203556EA044C4FEA62
:10052000144418BF641C4FF000084FF000099042BB
:1005300071EB030C39D3002919BFB1FA81F701FA25
:1005400007F6B0FA80F700FA07F6C7F120071EBFDA
:1005500020FA07FC46EA0C062037B6FBF4FCA7EBB2
:100560000507103F07F01F0BCBF120060CFA0BFB21
:100570002CFA06F644BFB3460026202FA4BF5E46E1
:100580004FF0000B5BEA060C08BF4FF0010B19EBB4
:100590000B09ABFB027C48EB0608C01B06FB02CC38
:1005A0000BFB03CC71EB0C01C1E70B460246414645
:1005B0004846BDE8F08B13B54FF000004FF0000146
:1005C000AFF30080BDE81C40704700000FB41CB5BD
:1005D000074B06AA7B4469460090059800F061FC31
:1005E0000020694600F070FC1CBC5DF814FB0000A4
:1005F000F108000070B5044685690068C10601D5A0
:10060000302600E02026C00707D070BDD4E90121C4
:1006100030469047206A401C20626D1EF6D570BDA2
:1006200070B5044685690078C00707D170BDD4E96C
:10063000012120209047206A401C20626D1EF6D5C3
:1006400070BD00002DE9F0410646002410687529B0
:10065000314616A510D0AFF30080002802DA4042E0
:1006600013A507E031688A0701D512A502E0490702
:1006700004D511A5012401E0AFF3008000210A2276
:1006800006F1240709E0B0FBF2FCB0FBF2F302FB39
:100690001C00303078541846491C0028F3D12346FA
:1006A0002A463046BDE8F04100F090B90000000055
:1006B0002D0000002B0000002000000070B5044653
:1006C0000D4621461068AFF300802188090502D548
:1006D0000F4A7A4402E00E4A7A440E32002104F1B5
:1006E000240305E000F00F060009965D5E54491CE6
:1006F0000028F7D120780023000704D5702D02D000
:1007000009B1022311322046BDE8704000F05EB905
:10071000F62901002DE9F05F894604464FF0000AF2
:10072000DFF824B1FB44C0F820A02046E1688847E8
:1007300000287DD0252806D0D4E901219047206AE1
:10074000401C2062F1E700255F462046E1688847AB
:100750002028064607DB312E05D2B81910F8200CE8
:1007600008B10543F1E7A80701D525F00405C4F851
:100770001CA00027C4F818A02A2E09D030460CF07F
:1007800067FC38B304EB8708303EC8F8186019E0FE
:1007900059F8041B204604EB87029161E168884701
:1007A000012F064618D1E069002820DA25F020053F
:1007B0001DE0D8F8180000EB800006EB4000303850
:1007C000C8F818002046E168884706460CF040FC4F
:1007D0000028EED1012F0AD02E2E08D12046E16844
:1007E00088477F1C0646022F45F02005C4DBA06920
:1007F000002803DA404245F00105A061E80701D076
:1008000025F01005A6B1A6F14100192802D820361E
:1008100045F400654A463146204625604D46FFF7BF
:10082000AFFD60B1012807D0ED1D25F0070000E005
:1008300007E000F1080978E705F1040975E730469B
:100840007AE7206ABDE8F09FCC29010070B5064622
:1008500000F0B8F80468054630460A22002100F08E
:1008600038FB2C6070BD40EA010370B59B072ED1A8
:100870004FF00136042A2AD308C810C99D1B9D4396
:10088000121F15EAC61517D0D8B2E1B2401A50EAC5
:10089000056110D198B2A1B2401A50EA05410AD1BF
:1008A00023F07F4024F07F41401A50EA052102D115
:1008B000180EA0EB146070BDA342DBD018BA21BAA9
:1008C000884201D9012070BD4FF0FF3070BD0AB9D8
:1008D000002070BD10F8013B11F8014B63B1A34239
:1008E0000AD1521E08D010F8013B11F8014B1BB180
:1008F000A34201D1521EEDD1181B70BD10B5203A94
:10090000C0F00B80B1E81850203AA0E81850B1E8C8
:100910001850A0E81850BFF4F5AF5FEA027C24BF7E
:10092000B1E81850A0E8185044BF18C918C0BDE875
:1009300010405FEA827C24BF51F8043B40F8043B3E
:1009400008BF7047D20728BF31F8023B48BF11F8F3
:10095000012B28BF20F8023B48BF00F8012B70474D
:1009600002F0FF0343EA032242EA024200F0EBBA3C
:100970004FF0000200B5134694469646203922BF38
:10098000A0E80C50A0E80C50B1F12001BFF4F7AF83
:10099000090728BFA0E80C5048BF0CC05DF804EB65
:1009A000890028BF40F8042B08BF704748BF20F8D3
:1009B000022B11F0804F18BF00F8012B70477047D1
:1009C0007047704700487047C05400242DE9F04735
:1009D0000D4699469246044600F1240801688806AF
:1009E00004D5E06921F01001216000E00120A84257
:1009F00001DD471B00E00027A1697A1902EB09001D
:100A0000081AA0612078C00602D42046FFF7F2FD44
:100A1000002608E0D4E901211AF806009047206A70
:100A2000401C761C20624E45F4DB2078C0060AD5B7
:100A30002046FFF7DFFD06E0D4E901213020904792
:100A4000206A401C2062381EA7F10107F4DC07E091
:100A5000D4E9012118F805009047206A401C206263
:100A6000281EA5F10105F3DC2046FFF7D9FD20780B
:100A7000000602D50220BDE8F0870120FBE77047A1
:100A80002DE9FF4F0C461E464FF0FF378BB0D2E9E1
:100A90000001DDF860800A908A46C1F30A5505B965
:100AA0003D46002108464FF00000BAF1000F00F467
:100AB000400005DA00EB80004FF4400101EA5000ED
:100AC0004FEA9059B9F1010F00DDB9460A9850EA92
:100AD0004A000ED044F61050A5F2FF3545432F14BE
:100AE000B8F1000F1ED07542291E1EDDC9F10002AB
:100AF0001CE0B8F1010F4FF0000001D0302103E0FD
:100B0000F24305E02154401CB042FBDB304600229A
:100B1000002121540B99C1F80880C1E900200FB0D1
:100B2000BDE8F08FBD1B6D1CDEE74A4600DA694266
:100B300006A800F00FFB06AB93E8070003AB83E8C1
:100B4000070050460A9900F0EAFB8DE80700A0F57F
:100B500000501F3800900398002D09DD42F21F015C
:100B60004A46084403A90390684600F049FE08E09D
:100B7000A0F500504A461F3803A90390684600F0CC
:100B800053FE8DE807000004000C03D04FF0FF3047
:100B9000410800E01046B8F1000F03D00022009297
:100BA00015461EE0751E05D400F0FEF93032625580
:100BB0006D1EF9D5B3460122084302D000227F1CE6
:100BC00004E02078302801D100227F1E002A0997F6
:100BD00086D01DE0112D07DA00F0E6F930326255BB
:100BE0006D1C50EA0102F5D1084302D00098C8B14B
:100BF0000EE00021681E05E0235C625C6354225411
:100C0000401E491C8142F7DBAB46A81B401E0990E1
:100C1000002004F80B000B98099AC0F80880C0E97E
:100C2000002B7CE711264FF0000859E72DE9F04F23
:100C300088460446D21D22F0070191B0D1E9000197
:100C4000CDE90A010CF0D0F902460B98C00F01D093
:100C50002D2007E02068810701D52B2002E020210C
:100C600001EAC000032A099001D0072A05DB0346E8
:100C70004146204600F0DEF90BE12078800601D5E0
:100C8000E06900E00620B8F1650F814606D0B8F1B2
:100C9000660F18D0B8F1670F70D131E00020B9F1BC
:100CA000110F009001DB112301E009F101030AAAF1
:100CB00001A90CA8FFF7E4FEDDE90C70002609F19C
:100CC0000105834647E001204B4600904FF0004766
:100CD0000AAA01A90CA8FFF7D3FEDDE90DB00C9913
:100CE0005D46002610B909F101000D18B9EB0500A9
:100CF00003D4C0F1FF3609F10105A5EB09002BE093
:100D0000B9F1010F01DA4FF001090020B9F1110F1B
:100D10000090484601DD112300E003460AAA01A91C
:100D20000CA8FFF7ADFEDDE90C704D4600268346AA
:100D3000207800070AD4AB4500DA5D4601A8012DF2
:100D400004DD411911F8011C302907D04F4502DAA2
:100D500017F1040F04DA012082460FE06D1EEEE762
:100D6000002F02DCED1B3E4403E0781CA84200DDAE
:100D70007D1CB81B00F1010A4FF0004720780007E6
:100D800003D4AA4501DB4FF0FF3A0021B7F1004F31
:100D90000DF143088DF8431024D002202B23002F9F
:100DA00001DA7F422D230A21021EA0F1010000DC9E
:100DB0005FB197FBF1FC97FBF1F201FB1C7C17463E
:100DC0000CF1300C08F801CDEEE7A8F1010003703A
:100DD0002188090501D5452100E06521A0F1010820
:100DE00000F8011C09980FA9A1EB0807FF1D00B12D
:100DF0000120411901EBEA70A1693844081A401E2C
:100E0000A0612078C00602D42046FFF7F3FB0998C2
:100E100028B1D4E901219047206A401C2062207843
:100E2000C00622D52046FFF7E5FB1EE0002E04DBBE
:100E3000B34502DD01A8805D00E03020D4E9012146
:100E40009047206A401C2062761CAAF101005FEAEC
:100E5000000A0AD100F0A4F8C0680168405CD4E937
:100E600001219047206A401C2062281EA5F101053F
:100E7000DCDC07E0D4E9012118F8010B9047206A77
:100E8000401C2062381EA7F10107F3DC2046FFF763
:100E9000C7FB032011B043E601694A1C02610878D0
:100EA000704700B58FB0CDE90131002105910549AA
:100EB0007944CDE9031011466846FFF72BFC0FB0CB
:100EC00000BD0000E5FFFFFF0A6802F8010B0A60A1
:100ED00070472DE9F04791460F46804604460026AC
:100EE00014F8015B2DB100F053F80068405DC007B5
:100EF000F6D12B2D02D02D2D18D0641E4A4639462E
:100F0000204600F0D7F827B13968A14201D1C7F8CF
:100F100000804FF0020471050BD54042002803DD2C
:100F2000FFF750FD0460A007BDE8F08746F4806637
:100F3000E4E70028F8DAFFF745FD04606FF00040B1
:100F4000F2E74FF000020429C0F0128010F0030C09
:100F50003FF410ADCCF1040CBCF1020F18BF00F847
:100F6000012BA8BF20F8022BA1EB0C01FFF702BD5B
:100F70005FEAC17C24BF00F8012B00F8012B48BFB9
:100F800000F8012B7047000000487047C05400244F
:100F900010B500F005F8001D10BD00BF41D40000E1
:100FA00000487047E054002430B5B0F10A024FEA1F
:100FB000900E71F100034EEA817EB0EB0E0061EB02
:100FC00091014FEA101E4EEA017E10EB0E0041EB3C
:100FD00011114FEA102E4EEA016E10EB0E0041EB9C
:100FE00011214FEA104E4EEA014E10EB0E0041EB7C
:100FF0001141401841F100014FEAD00040EA417030
:101000004FEAD10110EB80054FEA810444EA907465
:1010100044EB01046D1944EB0404521BA3414FF04F
:10102000000348BF0A3200D530BD401C41F1000129
:1010300030BD00002DE9F0411F460446032601683B
:10104000072A01F4006004DB08B116A505E016A527
:1010500003E008B115A500E015A521F010002060FF
:10106000A069C01EA0610FB1401EA0612046FFF71D
:10107000C1FA4FB1D4E9012138469047206A401C9B
:101080002062C01C206206E0206AFAE7D4E9012150
:1010900015F8010B9047761EF8D22046FFF7C0FAEC
:1010A000BDE8F0814E414E006E616E00494E460033
:1010B000696E66002DE9F05F824615468B46002773
:1010C0000AF10104B9460078302801D09DB113E03F
:1010D00014F8010B0127782803D0582801D045B116
:1010E0000AE00DB1102D07D1002714F8010B1025CF
:1010F00002E0082500E00A250026B0460EE005FBC8
:10110000080005FB06F101271FFA80F801EB1046E5
:10111000B6F5803F00D3B94614F8010B294600F01C
:10112000ACF80028EBDABBF1000F05D00FB1641E5C
:1011300000E05446CBF80040B9F1000F06D0FFF7AD
:1011400041FC02210160C81EBDE8F09F48EA06404C
:10115000FAE700002DE9F047814616468AB0334889
:1011600078440DC88DE80D0030487844801C03ACED
:101170000DC884E80D0041F69B300844372190FBF0
:10118000F1F290FBF1F5A5F1800501FB12041B3C87
:1011900002D56442012000E00020DFF890A08046E4
:1011A0000027FA44AAF1BE0A0DE0E00709D0324652
:1011B000684607EB47010AEB810100F035FB8DE83B
:1011C000070064107F1C002CEFD1184F7F44AC3F08
:1011D00018E0E80714D007EB04100DF1180A90E8A6
:1011E0000E008AE80E00C068F04201D198190890FC
:1011F000324606A903A800F017FB03AB83E80700FB
:101200006D10641C002DE4D132466946B8F1000F20
:1012100003A802D000F0F4FA01E000F005FBC9E9F0
:101220000001C9F808200AB0BDE8F08720200100BD
:101230007546FFF7A9FEAE4605006946534620F005
:101240000700854618B020B5FFF736F9BDE8204005
:101250004FF000064FF000074FF000084FF0000B72
:1012600021F00701AC46ACE8C009ACE8C009ACE825
:10127000C009ACE8C0098D4670473A2800D2303822
:1012800020F02002412A01D3A2F13700884201D385
:101290004FF0FF30704710B50446AFF30080204692
:1012A000BDE81040FFF794B84FF0013C50F8042B14
:1012B00051F8043B9A4215D1A2EB0C03934313EA75
:1012C000CC130BD150F8042B51F8043B9A4209D1AE
:1012D000A2EB0C03934313EACC13E7D04FF00000CA
:1012E000704700BFD01A01BAB1FA81F101F01801BC
:1012F00022FA01F0CB40C1F12001DBB2C0B2C01A2A
:101300002CFA01F3D11A914311EAC311E6D17047C7
:1013100001491820ABBEFEE72600020070475FEAD5
:10132000400C08BF91F0000F4FEA8C234FEAC12216
:1013300043EA51514FEA1C5018BF00F5F0404FEA04
:10134000300018BF41F000415FEA6C5C00F029807A
:10135000BCF1FF3F08BF40F080407047130C06BF50
:1013600012044FF0100C4FF0000C130E04BF1202C9
:101370000CF1080C130F04BF12010CF1040C930FB5
:1013800004BF92000CF1020CD30F04BF52000CF109
:10139000010C11464FF00002A0F11F00A0EB0C0061
:1013A000704711F0004F08BF704731F000413FF423
:1013B000D5AF0B0C06BF09044FF0100C4FF0000C1A
:1013C0000B0E04BF09020CF1080C0B0F04BF09013E
:1013D0000CF1040C8B0F04BF89000CF1020CCB0F35
:1013E00004BF49000CF1010CCCF12003A0EB0C0070
:1013F00022FA03F302FA0CF241EA030100F10100C0
:10140000704720F07F4C80EA030023F07F47ACEB6D
:10141000070303F57C5300F0004003F1FF032DE9BF
:1014200080494FEA154B09B44FEA144325EA0B4EA5
:1014300024EA03480FF2042606EB132749083E78F6
:101440005FEA320203FB0667C7F5000707FB06F6F3
:101450004FEA54374FEAD64606F1020607FB066C00
:10146000CCF1005C4FEA1C472CEA074C07FB06F462
:101470000CFB06F504EB15464FEA961634BF002028
:101480004FF000404FEAD13706FB07FC4FEA1C4CF7
:101490000CFB0BF7D21B03FB0CF761EB07010CFBFA
:1014A0000EF7B0EB074072EB17420CFB08F734BFA6
:1014B000A2EB0742B2EB074261EB17414FEA0C4443
:1014C0004FEA910706FB07FC4FEA1C4C0CFB0BF79D
:1014D000B0EBC74072EB573203FB0CF734BFA2EB03
:1014E000C742B2EBC74261EB57310CFB0EF7B0EBD2
:1014F000C70072EB57720CFB08F734BFA2EBC702B0
:10150000B2EBC70261EB5771039F4FEA816141EA79
:10151000921104EBCC044FEAD1374FEA826206FB0A
:1015200007FC42EA90124FEA80604FEA1C4C0CFB29
:101530000BF7D21B03FB0CF761EB07010CFB0EF75B
:10154000B0EB074072EB17420CFB08F734BFA2EB7D
:101550000742B2EB074261EB17414FEA8C554FEA65
:10156000910704EB9C2406FB07FC4FEA1C4C0CFB88
:101570000BF7B0EBC74072EB573203FB0CF734BFED
:10158000A2EBC742B2EBC74261EB57310CFB0EF73F
:10159000B0EBC70072EB57720CFB08F734BFA2EB3D
:1015A000C702B2EBC70261EB577115EB4C254FEA4E
:1015B000816141EA92114FEA82624FEAD13742EAF1
:1015C000901206FB07FC44F100044FEA80604FEAEA
:1015D0001C4C0CFB0BF7D21B03FB0CF761EB070158
:1015E0000CFB0EF7B0EB074072EB17420CFB08F751
:1015F00034BFA2EB0742B2EB074261EB174115EB98
:101600001C154FEA813141EA92414FEA823242EAA7
:1016100090424FEA80304FEA0C7644F1000448EAE9
:1016200003434EEA0B484FF0000EB2EB080C71EB8F
:10163000030724BF624639464EEB0E0E4FF0000BF7
:101640000018524149414BEB0B0BB2EB080C71EB0C
:1016500003077BF1000B24BF624639464EEB0E0EAA
:101660004FF0000B0018524149414BEB0B0BB2EB12
:10167000080C71EB03077BF1000B24BF624639466F
:101680004EEB0E0E51EA020718BF46F0010616EBAC
:101690000E7655F1000254F1000103D5BDE8890131
:1016A000BDE80088BDE88901BDE80048B61952418F
:1016B00041EB0101A3F10103704780807F7E7D7CB7
:1016C0007B7A7978777676757473727171706F6ED4
:1016D0006E6D6C6C6B6A6A6968686766666564647F
:1016E000636362616160605F5F5E5E5D5D5C5C5B09
:1016F0005B5A5A5959585857575656555555545478
:10170000535352525251515050504F4F4F4E4E4DD5
:101710004D4D4C4C4C4B4B4B4A4A4A494949484821
:101720004847474747464646454545444444444361
:1017300043434342424242414141002B26D4770079
:1017400021D01CB54FEA370703B44FF010004FF01B
:1017500010014FF000000FBCBDE810400BF1010B71
:10176000BBF1010F08BF5FEA170722BF12F10102A8
:1017700011F101014FF0004143F1000300F000407E
:1017800043EA00007047F9D35708DAE746EA06460D
:1017900013F1400F4FEA16461FDD13F1200FDFBF94
:1017A00016430A46002120335B42C8D0C3F120070C
:1017B00046EA064602FA07F74FEA164646EA0706E1
:1017C000C3F1200722FA03F201FA07F721FA03F125
:1017D0004FF0000342EA0702B1E746EA020646EA92
:1017E00006464FEA164646EA0106BCBF46EA0646EA
:1017F000360C4FF000034FF000024FF000019EE75F
:101800002DE9C048934630B491E8380007C831EA62
:10181000400C48BF34EA430C03D5FFF7F2FDFFF755
:101820008CFFF0BCBDE800882DE9C048934630B479
:1018300091E8380007C810F0804F08BF13F0804FC0
:1018400003D100F005F8FFF778FFF0BCBDE8008891
:1018500020F07F4780EA030023F07F4C07EB0C0366
:10186000A3F57C5300F00040A3F1FE0392F0000FBB
:1018700000F0B38095F0000F00F077802DE901496A
:101880004FEA11404FEA144621EA004800FB06FCEB
:1018900024EA064708FB06F607FB08F800FB07F7F3
:1018A00018EB06484CEB164C4FEA124B18EB074866
:1018B0004FEA15464CEB174022EA0B4E0BFB06FC99
:1018C00025EA06470EFB06F607FB0EFE0BFB07F7A5
:1018D0001EEB064E4CEB164C4FF000061EEB074E6F
:1018E0004CEB174B18EB0B0840F1000018EB0E0BFC
:1018F00058EB000840F100008F1A4FF000013CBF88
:10190000C943661B14BFB5EB040C00213CBFC9439F
:10191000F61B4FEA17444EEA8E0E27EA04454FEABB
:101920001C4704FB07622CEA074C05FB07F70CFB7E
:1019300005F604FB0CFC16EB074642EB174216EBD0
:101940000C4642EB1C421BEB060658EB02024141DF
:1019500046EA9E0601D5BDE80189B619524141EB20
:101960000101A3F10103BDE801894FEA14454FEAE3
:10197000114724EA054621EA074C05FB07F406FB5C
:1019800007F70CFB06F105FB0CFC11EB074144EBE0
:1019900017444FEA124711EB0C4144EB1C4422EA76
:1019A000074C05FB07F206FB07F70CFB06F605FBE9
:1019B0000CFC16EB074642EB174216EB0C4642EBCB
:1019C0001C456A1854F1000148BF7047B6195241CE
:1019D00041EB0101A3F10103704795F0000F37D0EF
:1019E0004FEA11424FEA144721EA024624EA074C23
:1019F00002FB07F106FB07F70CFB06F402FB0CFCED
:101A000014EB074441EB17414FEA154714EB0C4424
:101A100041EB1C4125EA074C02FB07F506FB07F7E3
:101A20000CFB06F602FB0CFC16EB074645EB1745D4
:101A300016EB0C4645EB1C42121951F1000148BF50
:101A40007047B619524141EB0101A3F10103704700
:101A50004FEA14454FEA114724EA054621EA074CAC
:101A600005FB07F106FB07F70CFB06F24FF000063B
:101A700005FB0CFC12EB074241EB174112EB0C4249
:101A800051EB1C4148BF7047921841EB0101A3F193
:101A90000103704710B5024800F002FF10BD0000BE
:101AA0001005002400BFFEE70020704700207047AB
:101AB00070B505460E46174808F0E6FF10B14FF026
:101AC000FF3070BD1348D0F8BC42E0780006A17822
:101AD00000EB0140617800EB0120217808440E49B9
:101AE00008600846006820B1012805D002280DD101
:101AF00008E00BF081FF0AE00848007808B90BF015
:101B000057FF04E001200549087000E000BF00BF56
:101B10000020D6E7D80700245800002475010024CF
:101B20000146374A0868904249D0354A1832086859
:101B3000904244D0324A3032086890423FD0304A16
:101B40004832086890423AD02D4A60320868904284
:101B500035D02B4A78320868904230D0284A9032EB
:101B6000086890422BD0264AA8320868904226D0B6
:101B7000244A0868904222D0224A183208689042CB
:101B80001DD0204A30320868904218D01D4A483291
:101B90000868904213D01B4A6032086890420ED009
:101BA000184A78320868904209D0164A903208687C
:101BB000904204D0134AA8320868904201D1012013
:101BC00000E00020B0B10A78103A1823B2FBF3F01D
:101BD00000F007020C4B9A5CCA65032805D90A6815
:101BE0006FF30902121D8A6503E00A686FF30902A8
:101BF0008A6503E0086820F0FF008865886D7047FB
:101C00001000024010040240D8E4000810B5026839
:101C10002B4C0368A34222D0294C14340368A342FE
:101C20001DD0274C28340368A34218D0244C3C34E0
:101C30000368A34213D0224C50340368A3420ED051
:101C40001F4C64340368A34209D01D4C78340368E8
:101C5000A34204D01A4C8C340368A34201D101235F
:101C600000E000238BB10378083B1424B3FBF4F1AC
:101C7000144B03EB81030366124B8033436601F080
:101C80001F040123A340836618E00378103B182447
:101C9000B3FBF4F10C4B9A4204D80B4BA83B9A428D
:101CA00000D30831094B03EB81030366074B8033F4
:101CB000436601F01F040123A340836610BD0000AA
:101CC0000854025800580258B80402400008024064
:101CD0000179A9B3082940D8204B02689A4222D042
:101CE0001E4B143302689A421DD01C4B28330268E5
:101CF0009A4218D0194B3C3302689A4213D0174BC2
:101D0000503302689A420ED0144B643302689A42F0
:101D100009D0124B783302689A4204D00F4B8C33AF
:101D200002689A4201D1012200E000224AB14A1E13
:101D30000B4B03EB8202C266094A4032026708E09D
:101D40000BE04A1E074B03EB8202C266054A403293
:101D500002674A1E012393404367704708540258A4
:101D60000059025800090240014600208A69D2B990
:101D70008A6A32B1012A0DD0022A03D0032A10D177
:101D80000EE000BFCA6A02F08072B2F1807F00D11B
:101D9000012007E0CA6AB2F1C07F00D1012001E052
:101DA00000E000BF36E08A69B2F5005F1BD18A6AA5
:101DB00032B1012A07D0022A03D0032A11D10AE046
:101DC00000BF01200EE0CA6A02F08072B2F1807F8B
:101DD00000D1012006E0CA6AB2F1C07F00D1012023
:101DE00000E000BF16E08A6A32B1012A05D0022A5B
:101DF00004D0032A0CD103E000BF00BF012008E09B
:101E0000CA6A02F08072B2F1807F00D1012000E046
:101E100000BF00BF7047704710B5012001F0DEFD24
:101E200010BD10B54FF4805001F0D8FD4FF40050B4
:101E300001F0D4FD10BD10B5202001F0CFFD10BD84
:101E400072B600BFFEE7000010B50948002101602E
:101E500041608160074801608180817106480160AE
:101E60008180817101220549054805F0A9FF10BD57
:101E7000E0160024830100248A010024800100244C
:101E80006C06002470B5044629480068401C2849A7
:101E90000860062227A12046FEF7E5FC002845D170
:101EA0000025002606E0605D2C2802D123498D55CF
:101EB000761C6D1C605D2A28F5D1204840781F49AA
:101EC0000978401A072830DB1C48407A1B49097AF8
:101ED000401A072829D11A48D0E90030194A9A1A1D
:101EE00070F1000021D215480078401C01191648F5
:101EF0000A680260898881801048007A401C20446A
:101F0000124902680A60808888800F48FEF79EFCAC
:101F10000F4908600D48FEF799FC0D4988630D488C
:101F2000D0E900100C4AC2E9001000BF70BD0000EB
:101F3000AC010024244750524D430000E016002419
:101F40009801002400350C00830100248A0100243C
:101F5000F0160024300100244001002470B505462D
:101F60000020204908800024285D242801D1641C19
:101F700001E0002070BD07E0285D1A49B1F90010AA
:101F8000484018490880641C285D2A2801D0802C0C
:101F9000F2DB802C01DB0020ECE7285D2A2807D14A
:101FA000601C285C10490870A01C285C487001E087
:101FB0000020DFE70B48B0F900200CA10D48FEF728
:101FC00005FB0C48007808490978884207D1094880
:101FD000407805494978884201D10120CAE70020AC
:101FE000C8E70000A4010024A601002425303258CF
:101FF00000000000A801002470B50A480468001D14
:102000000568001D0668344454B10822064920467C
:1020100005F0C4FF042204491031284605F0BEFF34
:1020200070BD000000E8F11F3E0000242DE9F041E2
:10203000044601F0E7FD804614B90120BDE8F081B7
:1020400094F83500022808D08020606500BF002089
:1020500084F8340000BF0120F0E7FE492068884280
:1020600049D0FC4918312068884244D0F9493031C0
:10207000206888423FD0F7494831206888423AD0EA
:10208000F44960312068884235D0F24978312068BF
:10209000884230D0EF499031206888422BD0ED49FA
:1020A000A8312068884226D0EB492068884222D097
:1020B000E9491831206888421DD0E749303120684D
:1020C000884218D0E44948312068884213D0E24958
:1020D0006031206888420ED0DF497831206888421C
:1020E00009D0DD4990312068884204D0DA49A8310E
:1020F0002068884201D1012000E0002068B12068FA
:10210000006820F01E00216808602068406920F007
:10211000800021684861256806E02068006820F09A
:102120000E00216808602568CA492068884270D07E
:10213000C8491831206888426BD0C64930312068C0
:10214000884266D0C34948312068884261D0C1497D
:102150006031206888425CD0BE497831206888426E
:1021600057D0BC4990312068884252D0B949A83133
:10217000206888424DD0B8492068884249D0B64985
:1021800018312068884244D0B349303120688842F1
:102190003FD0B1494831206888423AD0AE496031D9
:1021A0002068884235D0AC4978312068884230D0E8
:1021B000A9499031206888422BD0A749A8312068CE
:1021C000884226D0A5492068884222D0A3491431EC
:1021D000206888421DD0A14928312068884218D043
:1021E0009E493C312068884213D09C495031206878
:1021F00088420ED0994964312068884209D09749B5
:1022000078312068884204D094498C312068884213
:1022100001D1012000E0002028B1206E006820F4E8
:102220008070216E08608B492068884249D08949B6
:1022300018312068884244D086493031206888426D
:102240003FD084494831206888423AD08149603182
:102250002068884235D07F4978312068884230D064
:102260007C499031206888422BD07A49A831206877
:10227000884226D078492068884222D07649183191
:10228000206888421DD0744930312068884218D0B7
:10229000714948312068884213D06F496031206805
:1022A00088420ED06C4978312068884209D06A494A
:1022B00090312068884204D06749A831206888425C
:1022C00006D12068006820F001002168086005E060
:1022D0002068006820F001002168086011E001F02A
:1022E00091FCA0EB080005280BD920206065032095
:1022F00084F8350000BF002084F8340000BF0120BE
:102300009CE6286800F001000028E8D151492068C7
:10231000884249D04F4918312068884244D04D49FD
:102320003031206888423FD04A494831206888428D
:102330003AD0484960312068884235D045497831E3
:102340002068884230D043499031206888422BD0A1
:102350004049A8312068884226D03F4920688842F9
:1023600022D03D491831206888421DD03A49303189
:102370002068884218D0384948312068884213D0F4
:1023800035496031206888420ED033497831206861
:10239000884209D0304990312068884204D02E49C3
:1023A000A8312068884201D1012000E0002040B11E
:1023B000A66D94F85C0000F01F013F208840B060DB
:1023C00007E0A76D94F85C0000F01F010120884031
:1023D000786020492068884276D01E4918312068EC
:1023E000884271D01B493031206888426CD019492D
:1023F00048312068884267D0164960312068884299
:1024000062D014497831206888425DD011499031FA
:102410002068884258D00F49A8312068884253D09C
:102420000D49206888424FD00B49183120688842F6
:102430004AD0094930312068884245D006494831A0
:102440002068884240D004496031206888423BD0EF
:10245000014905E0100002401004024008540258EF
:102460007831206888422FD02549206888422BD0B7
:10247000234918312068884226D0224920688842A2
:1024800022D020491431206888421DD01D492831AE
:102490002068884218D01B493C312068884213D0FC
:1024A00018495031206888420ED01649643120689E
:1024B000884209D0134978312068884204D01149F4
:1024C0008C312068884201D1012000E0002068B1F1
:1024D000D4E919104860E06E40B1E06E006820F465
:1024E0008070E16E0860D4E91C104860012084F817
:1024F000350000BF002084F8340000BF00BF9DE518
:10250000A00402400854025870B504460CB90120DA
:1025100070BD94F83500022803D08020606501204A
:10252000F6E7DC492068884249D0DA49183120684A
:10253000884244D0D7493031206888423FD0D549BD
:102540004831206888423AD0D249603120688842B8
:1025500035D0D04978312068884230D0CD4990318B
:10256000206888422BD0CB49A8312068884226D0E9
:10257000C9492068884222D0C7491831206888425A
:102580001DD0C54930312068884218D0C249483131
:102590002068884213D0C0496031206888420ED03C
:1025A000BD4978312068884209D0BB499031206804
:1025B000884204D0B849A8312068884201D101205E
:1025C00000E00020F0B3042084F83500B149206811
:1025D00088424BD0AF4918312068884246D0AD4977
:1025E00030312068884241D0AA4948312068884269
:1025F0003CD0A84960312068884237D0A54978315D
:102600002068884232D0A3499031206888422DD07A
:10261000A049A8312068884228D09F492068884274
:1026200024D09D491831206888421FD09A49303102
:10263000206888421AD0984948312068884215D0CD
:10264000954900E020E06031206888420ED0924930
:1026500078312068884209D08F49903120688842BB
:1026600004D08D49A8312068884206D120680068CE
:1026700020F001002168086009E12068006820F06E
:1026800001002168086002E12068006820F00E0067
:10269000216808607F492068884249D07D49183107
:1026A0002068884244D07B493031206888423FD03E
:1026B00078494831206888423AD0764960312068AC
:1026C000884235D0734978312068884230D07149CA
:1026D0009031206888422BD06E49A831206888420A
:1026E00026D06D492068884222D06B491831206875
:1026F00088421DD0684930312068884218D0664928
:1027000048312068884213D063496031206888428C
:102710000ED0614978312068884209D05E499031F5
:102720002068884204D05C49A8312068884206D1DC
:102730002068006820F001002168086005E020683A
:10274000006820F001002168086052492068884232
:1027500070D050491831206888426BD04D493031D3
:102760002068884266D04B4948312068884261D051
:1027700048496031206888425CD0464978312068F9
:10278000884257D0434990312068884252D041490D
:10279000A831206888424DD03F492068884249D0FE
:1027A0003D4918312068884244D03B493031206887
:1027B00088423FD038494831206888423AD036496B
:1027C00060312068884235D03349783120688842AA
:1027D00030D031499031206888422BD02E49A83121
:1027E0002068884226D02D492068884222D02B4973
:1027F0001431206888421DD0284928312068884239
:1028000018D026493C312068884213D023495031E2
:10281000206888420ED0214964312068884209D05E
:102820001E4978312068884204D01C498C312068C8
:10283000884201D1012000E00020D8B1206E00685C
:1028400020F48070216E0860A56D94F85C0000F0A3
:102850001F01012088406860D4E919104860E06ECB
:1028600040B1E06E006820F48070E16E0860D4E949
:102870001C104860012084F8350000BF002084F857
:10288000340000BF206D10B12046216D8847002024
:102890003EE60000100002401004024008540258B6
:1028A0002DE9F84F044600200090FE4800684FF4E0
:1028B0001651B0FBF1FAA66DD4F858803768D8F8F5
:1028C0000090F9492068884249D0F74918312068BA
:1028D000884244D0F4493031206888423FD0F249E0
:1028E0004831206888423AD0EF49603120688842F8
:1028F00035D0ED4978312068884230D0EA499031AE
:10290000206888422BD0E849A8312068884226D028
:10291000E6492068884222D0E4491831206888427C
:102920001DD0E24930312068884218D0DF49483153
:102930002068884213D0DD496031206888420ED07B
:10294000DA4978312068884209D0D8499031206826
:10295000884204D0D549A8312068884201D101209D
:1029600000E0002000287DD094F85C0000F01F01FA
:10297000082088403840002868D0CB492068884229
:1029800049D0C94918312068884244D0C6493031FD
:10299000206888423FD0C4494831206888423AD0F4
:1029A000C14960312068884235D0BF4978312068FC
:1029B000884230D0BC499031206888422BD0BA4937
:1029C000A8312068884226D0B8492068884222D0A1
:1029D000B6491831206888421DD0B449303120688A
:1029E000884218D0B14948312068884213D0AF4995
:1029F0006031206888420ED0AC4978312068884226
:102A000009D0AA4990312068884204D0A749A8314A
:102A10002068884204D12068006800F0040003E0C8
:102A20002068006800F0080080B12068006820F08D
:102A300004002168086094F85C0000F01F01082081
:102A40008840B060606D40F00100606594F85C0003
:102A500000F01F01012088403840E8B39249206807
:102A6000884200E0B7E24BD08F4918312068884295
:102A700046D08D4930312068884241D08A4948315A
:102A8000206888423CD0884960312068884237D02D
:102A9000854978312068884232D083499031206856
:102AA00088422DD08049A8312068884228D07F49AB
:102AB0002068884224D07D491831206888421FD080
:102AC0007A493031206888421AD0784948312068E4
:102AD000884215D0754900E026E0603120688842C0
:102AE0000ED0724978312068884209D06F49903100
:102AF0002068884204D06D49A8312068884204D1FA
:102B00002068406900F0800002E020680068002032
:102B100050B194F85C0000F01F0101208840B060C3
:102B2000606D40F00200606594F85C0000F01F01E9
:102B3000042088403840E8B35B49206888424BD085
:102B4000594918312068884246D0574930312068A9
:102B5000884241D054494831206888423CD052498B
:102B600060312068884237D04F49783120688842E8
:102B700032D04D499031206888422DD04A49A83141
:102B80002068884228D049492068884224D0474993
:102B90001831206888421FD044493031206888426B
:102BA0001AD0424948312068884215D03F496031E7
:102BB000206800E024E088420ED03C49783120684B
:102BC000884209D0394990312068884204D0374979
:102BD000A8312068884204D12068006800F0020013
:102BE00002E020680068002050B194F85C0000F01A
:102BF0001F0104208840B060606D40F004006065F3
:102C000094F85C0000F01F01102088403840E8B3C1
:102C100025492068884251D02349183120688842CC
:102C20004CD0214930312068884247D01E49483174
:102C30002068884242D01C496031206888423DD0DB
:102C4000194978312068884238D017499031206876
:102C5000884233D01449A831206888422ED01349C5
:102C6000206888422AD0114918312068884225D02E
:102C70000E4930312068884220D00C494831206804
:102C800088421BD009496031206800E04DE088424D
:102C900014D006497831206888420FD0034990311A
:102CA000206805E09C00002410000240100402404F
:102CB000884203D0FE492068884204D12068006819
:102CC00000F0080003E02068006800F0040060B332
:102CD00094F85C0000F01F0110208840B06020686C
:102CE000006800F4802080B12068006800F40020B3
:102CF00028B9206CC8B12046216C884715E0A06C2B
:102D000098B12046A16C88470FE02068006800F465
:102D1000807028B92068006820F0080021680860E9
:102D2000206C10B12046216C884794F85C0000F0BC
:102D30001F0120208840384000287DD0DD492068D0
:102D4000884249D0DB4918312068884244D0D949AB
:102D50003031206888423FD0D649483120688842C7
:102D60003AD0D44960312068884235D0D149783191
:102D70002068884230D0CF499031206888422BD0DB
:102D8000CC49A8312068884226D0C949A839206892
:102D9000884221D0C6499039206888421CD0C44955
:102DA00078392068884217D0C14960392068884244
:102DB00012D0BF494839206888420DD0BC4930390B
:102DC0002068884208D0BA4918392068884203D060
:102DD000B7492068884204D12068006800F01000DC
:102DE00003E02068006800F0020028B394F85C005B
:102DF00000F01F0120208840B06094F835000428BE
:102E00002DD12068006820F0160021680860206835
:102E1000406920F0800021684861206C08B9A06CEE
:102E200028B12068006820F008002168086094F844
:102E30005C0000F01F0100E03FE03F208840B060F0
:102E4000012084F8350000BF002084F8340000BF62
:102E5000206D10B12046216D8847BDE8F88F2068AD
:102E6000006800F4802080B12068006800F4002031
:102E700028B9606C08B32046616C88471DE0E06BA0
:102E8000D8B12046E16B884717E02068006800F45D
:102E9000807068B92068006820F010002168086020
:102EA000012084F8350000BF002084F8340000BF02
:102EB000E06B10B12046E16B8847606D00287AD046
:102EC000606D00F00100E8B3042084F83500794912
:102ED000206888424BD0774918312068884246D014
:102EE000744930312068884241D0724948312068A5
:102EF00088423CD06F4960312068884237D06D49A4
:102F000078312068884232D06A49903120688842FE
:102F10002DD06849A8312068884228D06449A83952
:102F20002068884223D062499039206888421ED0A8
:102F30005F4978392068884219D05D496039206836
:102F4000884200E040E012D0594948392068884260
:102F50000DD0574930392068884208D05449183973
:102F60002068884203D052492068884206D12068F0
:102F7000006820F001002168086005E02068006812
:102F800020F001002168086000BF0098401C0090FC
:102F9000504500D905E02068006800F001000028D5
:102FA000F3D100BF2068006800F0010020B10320C9
:102FB00084F8350003E00DE0012084F8350000BFFF
:102FC000002084F8340000BFE06C002802D02046C6
:102FD000E16C8847D9E138492068884222D03649D7
:102FE0001431206888421DD0334928312068884236
:102FF00018D031493C312068884213D02E495031D5
:10300000206888420ED02C4964312068884209D05B
:10301000294978312068884204D027498C312068BA
:10302000884201D1012000E000200028D2D0206891
:10303000056894F85C0000F01F010420884000EA55
:103040000900D8B305F00400C0B394F85C0000F0A8
:103050001F0104208840C8F8040005F4004080B136
:1030600005F4803030B9A06C0028B3D02046A16CA4
:1030700088478AE1206C0028ACD02046216C884724
:1030800083E105F02000E8BB0A492068884253D05C
:1030900008491831206888424ED0064930312068EE
:1030A000884249D0034948312068884244D006E02C
:1030B000B804024010000240085402584FE0B449DE
:1030C00060312068884237D0B14978312068884221
:1030D00032D0AF499031206888422DD0AC49A83118
:1030E0002068884228D0AB492068884224D0A9496A
:1030F0001831206888421FD0A649303120688842A4
:103100001AD000E025E0A34948312068884213D056
:10311000A0496031206888420ED09E4978312068ED
:10312000884209D09B4990312068884204D099494F
:10313000A8312068884206D12068006820F0080085
:103140002168086005E02068006820F0040021681C
:103150000860206C10B32046216C884715E194F874
:103160005C0000F01F010220884000EA0900E8B37B
:1031700005F00200D0B394F85C0000F01F010220BB
:103180008840C8F8040005F4004070B105F48030B0
:1031900028B9606C10B12046616C8847F5E0E06B9F
:1031A000F0B32046E16B8847EFE005F02000C0BB9C
:1031B0007749206888424ED0754918312068884286
:1031C00049D0734930312068884244D07049483131
:1031D000206888423FD06E496031206888423AD0EA
:1031E0006B4978312068884235D000E04EE068496C
:1031F0009031206888422ED06549A83120688842E5
:1032000029D064492068884225D062491831206855
:10321000884220D05F493031206888421BD001E0CD
:103220006EE02DE05B4948312068884213D059494F
:103230006031206888420ED0564978312068884233
:1032400009D0544990312068884204D05149A831AE
:103250002068884206D12068006820F014002168A8
:10326000086005E02068006820F00A002168086016
:10327000012084F8350000BF002084F8340000BF2E
:10328000E06BE8B32046E16B88477EE094F85C0091
:1032900000F01F010820884000EA090080B305F013
:1032A000080068B33A49206888424BD03849183141
:1032B0002068884246D0364930312068884241D063
:1032C00033494831206888423CD031496031206818
:1032D000884237D02E4978312068884232D02C4934
:1032E0009031206888422DD02949A8312068884231
:1032F00028D028492068884224D02649183100E087
:1033000043E0206888421DD022493031206888423D
:1033100018D0204948312068884213D01D496031B7
:10332000206888420ED01B4978312068884209D035
:10333000184990312068884204D01649A831206885
:10334000884206D12068006820F01C0021680860CF
:1033500005E02068006820F00E002168086094F8FD
:103360005C0000F01F0101208840C8F80400012023
:10337000606584F8350000BF002084F8340000BF89
:10338000E06C10B12046E16C884700BF65E50000A5
:1033900010000240100402402DE9F041044600F004
:1033A00031FC804614B90120BDE8F081FE49206857
:1033B000884249D0FC4918312068884244D0FA49F3
:1033C0003031206888423FD0F74948312068884230
:1033D0003AD0F54960312068884235D0F2497831D9
:1033E0002068884230D0F0499031206888422BD044
:1033F000ED49A8312068884226D0EC4920688842EF
:1034000022D0EA491831206888421DD0E74930317E
:103410002068884218D0E54948312068884213D096
:10342000E2496031206888420ED0E0497831206856
:10343000884209D0DD4990312068884204D0DB49B8
:10344000A8312068884201D1012000E00020002836
:1034500073D0606A00B100BF022084F8350000BF5D
:10346000002084F8340000BFCF492068884249D04A
:10347000CD4918312068884244D0CB49303120688A
:1034800088423FD0C8494831206888423AD0C6496E
:1034900060312068884235D0C3497831206888423D
:1034A00030D0C1499031206888422BD0BE49A83124
:1034B0002068884226D0BD492068884222D0BB4976
:1034C0001831206888421DD0B849303120688842C0
:1034D00018D0B64948312068884213D0B3496031CA
:1034E000206888420ED0B14978312068884209D0DE
:1034F000AE4990312068884204D0AC49A831206898
:10350000884206D12068006820F001002168086028
:1035100005E02068006820F00100216808600DE0E7
:1035200000F070FBA0EB0800052807D9202060659B
:10353000032084F83500012036E769E02068006840
:1035400000F001000028EBD120680568984805408C
:10355000D4E9020108432169084361690843A1696C
:103560000843E1690843216A08430543606A042867
:1035700003D1D4E90B01084305436068292802D32D
:1035800060682E2817D960683F2802D360684228F7
:1035900011D96068472802D3606848280BD9606851
:1035A0004F2802D36068522805D96068742804D374
:1035B0006068772801D8012000E0002008B145F4B8
:1035C0008015206805602068456925F00705606A58
:1035D0000543606A04280DD1A06A0543E06A48B13A
:1035E0002046FEF7C1FB28B140206065012084F829
:1035F0003500D9E6206845612046FEF791FA064677
:1036000094F85C0000F01F013F208840B0609EE00D
:1036100068492068884222D066491431206888426F
:103620001DD0644928312068884218D061493C3156
:103630002068884213D05F495031206888420ED0FC
:103640005C4964312068884209D05A497831206841
:10365000884204D057498C312068884201D101202A
:1036600000E00020E0B353492068884222D051494D
:103670001431206888421DD04E4928312068884284
:1036800018D04C493C312068884213D04949503108
:10369000206888420ED0474964312068884209D0AA
:1036A000444978312068884204D042498C312068EE
:1036B000884201D1012000E0002000B100BF0220BB
:1036C00084F8350000BF002084F8340000BF206873
:1036D000056839480540A068402802D1102106E05D
:1036E0002EE0A068802801D1C10100E00021E0683F
:1036F00041EAD001206941EAD001606941EAD00184
:10370000A06941EAD001E06941EAD001206A41EABA
:10371000101005432068056026492068401A1421CE
:10372000B0FBF1F08000E0652046FEF7F9F90746AE
:1037300094F85C0000F01F0101208840786006E0EA
:1037400040206065032084F8350001202CE61649EE
:10375000206888427AD0144918312068884275D090
:10376000114930312068884270D00F4948312068B3
:1037700088426BD00C4960312068884266D00A4983
:1037800078312068884261D00749903120688842AA
:103790005CD00549A8312068884257D00349206889
:1037A000884253D0014909E0100002401004024051
:1037B0003F8010FE085402580F00FEFF18312068A9
:1037C000884243D03749206888423FD03549183174
:1037D000206888423AD0334930312068884235D059
:1037E000304948312068884230D02E496031206805
:1037F00088422BD02B4978312068884226D02A492C
:103800002068884222D028491431206888421DD07F
:10381000254928312068884218D023493C31206846
:10382000884213D020495031206888420ED01E496A
:1038300064312068884209D01B4978312068884269
:1038400004D019498C312068884201D1012000E060
:10385000002000B32046FEF7D9F9A068802801D1E6
:10386000002060602079216E0860D4E9191048605A
:10387000606860B16068082809D82046FEF728FA19
:103880000020E16E0860D4E91C10486003E00020CD
:10389000E0662067606700206065012084F83500DD
:1038A000002081E5400402400854025870B50446E7
:1038B00000F0A8F906462546681C10B104480078B7
:1038C000054400BF00F09EF9801BA842FAD370BDEA
:1038D0009800002410B50446012C45D0202C03D0BC
:1038E000B4F5005F58D142E02D48007880B92D48EA
:1038F000007868B1012210212B4800F07DF92B4996
:1039000003C92B4A03C201202549087029490870C0
:103910002948D0E90030294A9A1A70F100001ED2D5
:1039200001221021264800F067F9012240211E489B
:1039300000F062F91D48D0E90010224AC2E90010E7
:10394000214803F071FC204803F008FC1F4803F0F5
:103950006BFC1E4803F002FC01201D490870002189
:10396000154A1160516018E005F06AFC15E019482D
:10397000007848B90120174908704103104800F049
:1039800033F91549087006E04FF400510C4800F077
:103990002BF91149087000E000BF00BF10BD000006
:1039A0007101002475010024000002583801002430
:1039B00058010024280200243001002460E316008E
:1039C0000008025848010024D405002420060024E1
:1039D00070010024720100247301002410B5044614
:1039E00004480068204020B1024804602046FFF7E8
:1039F00071FF10BD88000058F8B502460B46002143
:103A00006D4DD2E001278F401E6806EA0704002CA6
:103A100072D01E7906F00306012E04D01E7906F03E
:103A20000306022E13D190684F000326BE40B04318
:103A30004F00DE68BE4030439060506801268E40E3
:103A4000B0431E79C6F300168E40304350601E7995
:103A500006F00306032E09D0D0684F000326BE40AF
:103A6000B0434F009E68BE403043D0601E7906F0E0
:103A70000306022E13D1CF0802F1200656F82700C4
:103A80004E07F70E0F26BE40B0434F07FF0E1E69CC
:103A9000BE403043CF0802F1200646F827001068E8
:103AA0004F000326BE40B0431E7906F003064F00C8
:103AB000BE40304310605E6806F44036002E73D07E
:103AC00000BF3E4E366846F002063C4F3E603E4622
:103AD000366806F00206009600BF00BF384E8F0819
:103AE00056F827008E07370F0F26BE40B043354EDD
:103AF000B24202D1002629E056E0334EB24201D153
:103B0000012623E0314EB24201D102261EE0304EA2
:103B1000B24201D1032619E02E4EB24201D1042651
:103B200014E02D4EB24201D105260FE02B4EB242D9
:103B300001D106260AE02A4EB24201D1072605E04D
:103B4000284EB24201D1092600E00A268F073F0F16
:103B5000BE4030431A4E8F0846F827004FF0B0465B
:103B60003068A0435E6806F4801606B120434FF02B
:103B7000B04630607068A0435E6806F4001606B177
:103B800020434FF0B04670606868A0435E6806F45A
:103B9000003606B1204368602868A0435E6806F4DA
:103BA000803606B120432860491C1E68CE40002E96
:103BB0007FF428AFF8BD000080000058F44402589C
:103BC0000804005800000258000402580008025877
:103BD000000C025800100258001402580018025835
:103BE000001C025800240258024613690B400BB116
:103BF000012000E0002070470AB1816101E00B0460
:103C000083617047014800687047000090000024FD
:103C1000034800680349097808440149086070476F
:103C2000900000249800002410B5032000F044F90F
:103C300002F066FA10490968C1F303210F4A515C8A
:103C400001F01F0120FA01F40B48006800F00F009A
:103C50001146085C00F01F0024FA00F008490860D3
:103C6000084804600F2000F00FF808B1012010BDD3
:103C700000F0B8F80020FAE71844025808E50008F8
:103C8000A00000249C00002470B58AB00446102CCB
:103C90000AD200222146192000F0D0F8192000F0A5
:103CA000B9F81948046002E001200AB070BD00BFF5
:103CB0001648006840F00100144908600846006892
:103CC00000F00100009000BF00BF01A902A802F0AF
:103CD00097F902F003FA45000D48B5FBF0F0461ED7
:103CE0000C480D49086040F2E7310B48C16046605E
:103CF00000210161816003F09FF918B9064803F0C3
:103D00002DFAD2E70120D0E794000024F0440258B5
:103D100040420F00000001408C0700244178154A02
:103D200011600178F9B1121D41681160017B09072A
:103D3000C27A41EA0261827A41EAC241427B41EAA7
:103D40008241827B41EA4241C27B41EA0241427A9E
:103D500041EA0221027A41EA420102781143054A0E
:103D60000832116005E00021024A121D1160121D87
:103D70001160704798ED00E000BF00BF00BFBFF3C7
:103D80005F8F00BF00BF00BF0548006820F480308F
:103D90000349086000200249703108607047000044
:103DA00024ED00E040F001010D4A11600C4970392A
:103DB000096841F480310A4A703A116000BF00BFBF
:103DC00000BFBFF34F8F00BF00BF00BF00BF00BFE9
:103DD00000BFBFF36F8F00BF00BF00BF7047000080
:103DE00094ED00E008B500BF0948006840F002000B
:103DF000074908600846006800F00200009000BF14
:103E000000BF00220F21901E00F018F808BD00002E
:103E1000F44402580146084600280DDB00BF00BFED
:103E200000F01F0301229A4043099B0003F1E023A5
:103E3000C3F8002100BF00BF00BF70472DE9F05F4D
:103E400080460D46164609F0E7F8074639462A46E9
:103E5000334601F00700C0F1070ABAF1040F02D996
:103E60004FF0040A01E0C0F1070AD14600F1040A4C
:103E7000BAF1070F02D24FF0000A01E0A0F1030AE5
:103E8000D4464FF0010A0AFA09FAAAF1010A0AEA2D
:103E9000020A0AFA0CFA4FF0010B0BFA0CFBABF119
:103EA000010B0BEA030B4AEA0B042146404609F0DA
:103EB000BBF8BDE8F09F000000BF00F00702064B12
:103EC00019684FF6FF031940044B0B4343EA0221E4
:103ED000014B196000BF70470CED00E00000FA05CF
:103EE00001460A680120C1F80005002081F8F404A9
:103EF000906940F000609061506D024B184350652E
:103F000000207047030000107047024610684162AD
:103F100000207047F0B5034615461868446A21B979
:103F200044EA05401E68B06219E01868806A04EB34
:103F30001044002208E0186800F5827050F8220052
:103F400004EB1044501CC2B2481E9042F3D844EA1D
:103F50000547186800F582704E1E40F82670002054
:103F6000F0BD10B50446D4F8080507F001FB10BDFC
:103F700070B504460D4605EBC50304F13C0101EBA9
:103F800083010A692946D4F8080507F0ECF970BDE9
:103F900070B504460D4605EBC50304F51F7101EB32
:103FA00083010A692946D4F8080507F060FA70BD54
:103FB00010B50446D4F8080507F0DDFA10BD2DE968
:103FC000F04104460D4605F08000802808D105F038
:103FD0000F0000EBC00104F13C0000EB810607E09C
:103FE00005F00F0000EBC00104F51F7000EB810627
:103FF0003146206808F0B2FD07463846BDE8F0813A
:1040000070B504460E4606F0800080280AD106F0FE
:104010000F0000EBC00104F13C0000EB8105012022
:10402000687009E006F00F0000EBC00104F51F7096
:1040300000EB81050020687006F00F00287000BFBB
:1040400094F8BC04012801D1022070BD012084F83D
:10405000BC0400BF2946206808F064F800BF0020B7
:1040600084F8BC0400BF00BFEFE770B504460E46FD
:1040700006F00F006168884201D9012070BD06F08A
:10408000800080280AD106F00F0000EBC00104F187
:104090003C0000EB81050120687009E006F00F008C
:1040A00000EBC00104F51F7000EB81050020687073
:1040B0000020A87006F00F00287000BF94F8BC0420
:1040C000012801D10220D9E7012084F8BC0400BFF7
:1040D0002946206808F00AFB00BF002084F8BC04D1
:1040E00000BF00BFCAE72DE9F04705460E469046DF
:1040F0001F464FF0000906F0800080280AD106F024
:104100000F0000EBC00105F13C0000EB8104012031
:10411000607009E006F00F0000EBC00105F51F70AC
:1041200000EB81040020607006F00F002070C4F8DE
:104130000C802771607808B120782081022F01D18E
:104140000020607100BF95F8BC04012802D1022054
:10415000BDE8F087012085F8BC0400BF214628682F
:1041600007F0ECFE00BF002085F8BC0400BF484605
:10417000EEE72DE9F04104460E461746984606F054
:104180000F0000EBC00104F51F7000EB81052F61EB
:10419000C5F8188000202862687006F00F002870AB
:1041A0002069012800D16F6106F00F0028B9227C38
:1041B0002946206808F074F904E0227C294620682A
:1041C00008F028FB0020BDE8F08170B504460D46DC
:1041D00005F00F006168884201D9012070BD05F02B
:1041E000800080280AD105F00F0000EBC00104F127
:1041F0003C0000EB81060120707007E005EBC50173
:1042000004F51F7000EB8106002070700120B07073
:1042100005F00F00307000BF94F8BC04012801D1F4
:104220000220DBE7012084F8BC0400BF314620688F
:1042300008F0A3FA05F00F0028B9217C04F2C4426B
:10424000206808F01BFA00BF002084F8BC0400BFFF
:1042500000BFC3E72DE9F04104460E4617469846D5
:1042600006F00F0000EBC00104F13C0000EB8105FB
:104270002F61C5F81880002028620120687006F0C0
:104280000F0028702069012800D16F6106F00F002F
:1042900028B9227C2946206808F002F904E0227C33
:1042A0002946206808F0B6FA0020BDE8F0812DE923
:1042B000FE4F0446D4F800B05E46206808F035FD95
:1042C000002874D1206808F06FFD08B9BDE8FE8FA2
:1042D00040F608008059C0F30D20C4F8FC042068A3
:1042E00008F062FD00F00200022805D12068406954
:1042F00000F0020021684861206808F055FD00F0D8
:104300001000102845D12068806920F01000216835
:104310008861DBF8209009F00F0000EBC00104F584
:104320001F7000EB810AC9F3434002281AD147F6F7
:10433000F07009EA000030B3C9F30A125846DAF8FF
:10434000101008F036FDC9F30A11DAF8100008441D
:10435000CAF81000C9F30A11DAF820000844CAF8B4
:10436000200010E0C9F3434006280CD1082204F2D3
:10437000C441584608F01DFDC9F30A11DAF82000BF
:104380000844CAF820002068806940F010002168C5
:104390008861206808F008FD00F40020B0F5002FC7
:1043A0007BD10025206808F0CFFC029072E003E387
:1043B000029800F00100002868D0E9B2206808F0F7
:1043C000E6FC804608F0010048B1012106F53060A6
:1043D00000EB451081602946204604F0E7FB08F019
:1043E0000800082809D1082106F5306000EB4510C7
:1043F00081602946204604F0A7FB08F01000102831
:1044000005D1102106F5306000EB4510816008F001
:104410000200022824D1DBF8140000F0800080287C
:1044200007D140F60400805940F4806140F6040052
:10443000815105EBC50104F51F7000EB810A9AF864
:104440000300012806D100208AF80300E9B22046C3
:1044500000F0BDFA022106F5306000EB45108160E6
:1044600008F02000202805D1202106F5306000EB5F
:104470004510816008F40050B0F5005F06D14FF49C
:10448000005106F5306000EB451081606D1C02980C
:1044900040080290029800288AD1206808F084FC25
:1044A00000F48020B0F5802F7DD1206808F042FC18
:1044B000029000259AE0029800F00100002873D0D5
:1044C000E9B2206808F04AFC804608F00100F0B329
:1044D00005F00F0101208840019040F63400815919
:1044E000019821EA000040F634018851012106F5C7
:1044F000106000EB451081602069012824D105EB94
:10450000C50104F13C0000EB810005EBC502016927
:1045100004F13C0000EB8200C068014405EBC502D9
:1045200004F13C0000EB820001616DB905EBC501AF
:1045300004F13C0000EB8100806928B904F2C44218
:104540000121206808F09AF8E9B2204600E001E075
:10455000FFF70EFD08F00800082805D1082106F530
:10456000106000EB4510816008F01000102805D1A4
:10457000102106F5106000EB4510816008F0400046
:10458000402805D1402106F5106000EB4510816000
:1045900008F0020002281DD12946584608F086FB83
:1045A00005EBC50101E025E01CE004F13C0000EB57
:1045B000810A9AF80300012806D100208AF8030036
:1045C000E9B2204600F0FAF9022106F5106000EB8E
:1045D0004510816008F08000802803D129462046DC
:1045E00004F086FB6D1C0298400802900298002897
:1045F0007FF461AF206808F0D7FB00F00040B0F115
:10460000004F1CD140F60400805920F0010140F613
:104610000400815194F8F404012807D1002084F8A3
:10462000F40400212046FFF76FFC02E0204600F072
:10463000FFFA2068406900F0004021684861206866
:1046400008F0B2FB00F40060B0F5006F0ED140F648
:104650000800805900F0010010B1204600F040FB36
:104660002068406900F4006021684861206808F013
:104670009BFB00F00060B0F1006F19D12068406929
:1046800000F000602168486194F8F40468B90120E2
:1046900084F8F4042068406DC0F38300C4F8F80483
:1046A00001212046FFF730FC02E0204600F018FB15
:1046B000206808F079FB00F48050B0F5805F7ED16F
:1046C00040F60400805920F0010140F604008151B9
:1046D0001021206808F0EAFA002732E04FF67F3117
:1046E00006F5106000EB4710816006F5106000EBE6
:1046F0004710006820F4001106F5106000EB471029
:1047000001604FF67F3106F5306000EB47108160A5
:1047100006F5306000EB4710006820F4001106F544
:10472000306000EB4710016006F5306000EB471089
:10473000006840F0006106F5306000EB4710016052
:104740007F1C6068B842C9D840F61C00805940F010
:10475000011140F61C008151206B70B1D6F884081D
:1047600040F00B01C6F8841840F64400805940F030
:104770000B0140F6440081510FE040F614008059CF
:1047800042F22B01084340F614018851081F80595A
:1047900040F00B014FF401608151D6F8000820F47D
:1047A000FE60C6F80008217C04F2C442206807F0CD
:1047B00065FF2068406900F48050216800E000E057
:1047C0004861206808F0F0FA00F40050B0F5005F8E
:1047D00017D1206807F01AFC206808F093FAE0600F
:1047E00001F044FC0090227B2068009908F064FBF3
:1047F000204600F005FA2068406900F40050216866
:104800004861206808F0D0FA00F00800082808D1B4
:10481000204600F014FA2068406900F00800216882
:104820004861206808F0C0FA00F08000802818D1A4
:10483000DBF8180020F08000CBF8180001250DE00F
:1048400005EBC50104F51F7000EB8100C07801285D
:1048500003D1E9B22046FFF7B2FB6D1C6068A842A5
:10486000EED8206808F0A0FA00F48010B0F5801FA0
:104870002DD1012522E006F5106000EB4510D0F89F
:10488000009005EBC50104F13C0000EB81000079CC
:10489000012812D109F00040B0F1004F0DD10121E3
:1048A00005EBC50204F13C0000EB8200C170E8B2E8
:1048B00040F080012046FFF782FB6D1C6068A84233
:1048C000D9D82068406900F48010216848612068C8
:1048D00008F06AFA00F40010B0F5001F44D1012579
:1048E00038E006F5306000EB4510D0F8009005EB9D
:1048F000C50104F51F7000EB81000079012828D163
:1049000009F00040B0F1004F23D109F4803094F851
:10491000FC1401F0010188421BD1012105EBC50205
:1049200004F51F7000EB8200C170DBF8180040F046
:104930008000CBF81800DBF8140000F0800040B9CC
:1049400040F60400805940F4007140F604008151A3
:1049500003E06D1C6068A842C3D800BF20684069AE
:1049600000F4001021684861206808F01DFA00F08A
:104970008040B0F1804F08D12046FFF7F2FA20685E
:10498000406900F0804021684861206808F00CFA16
:1049900000F0040004280FD12068D0F8049009F03A
:1049A0000400042802D12046FFF702FB206840687B
:1049B00040EA09002168486000BF87E470B50446FA
:1049C0000D462946D4F8080506F03CFE70BD70B5CA
:1049D00004460D462946D4F8080506F057FE70BD7A
:1049E00070B58AB0044614B901200AB070BD2668BB
:1049F00094F8BD0428B9002084F8BC04204600F0D7
:104A0000A9F8032084F8BD04F06B00F4807008B9A5
:104A100000212161206807F03BFD282204F11001EC
:104A20006846FBF76BFF94E80F0007F003FB20B12B
:104A3000022084F8BD040120D7E70021206808F097
:104A4000E8F9002531E0012105EBC50204F13C0045
:104A500000EB8200417005EBC50104F13C0000F859
:104A6000215005EBC50100EB81000581002105EB1C
:104A7000C50204F13C0000EB8200017105EBC502A8
:104A800004F13C0000EB8200C16005EBC50204F1BB
:104A90003C0000EB8200016105EBC50204F13C0023
:104AA00000EB82008161681CC5B26068A842CAD868
:104AB00000252AE0002105EBC50204F51F7000EB7C
:104AC0008200417005EBC50104F51F7000F821500C
:104AD000002105EBC50200EB8200017105EBC50268
:104AE00004F51F7000EB8200C16005EBC50204F500
:104AF0001F7000EB8200016105EBC50204F51F7019
:104B000000EB82008161681CC5B26068A842D1D800
:104B1000282204F110016846FBF7F0FE94E80F002C
:104B200007F0CAFB20B1022084F8BD0401205CE735
:104B3000002084F83800012084F8BD04606A012850
:104B400002D12046FFF7CCF9206807F0A3FB002034
:104B50004BE7000010B5AEB00446B42101A8FBF746
:104B600007FF25492068884244D14FF480200190F6
:104B700019200A90C0210B9102210C9104210D9162
:104B800002210E9100210F914FF40071109100212C
:104B900011914FF40010219001A800F037FB08B1EB
:104BA000FDF74EF900F0E6F800BF1448006840F049
:104BB0000070124908600846006800F0007000901C
:104BC00000BF00BF002204214A20FFF737F94A2026
:104BD000FFF720F9002204214B20FFF72FF94B208B
:104BE000FFF718F9002204214D20FFF727F94D2087
:104BF000FFF710F92EB010BD00000440D844025851
:104C000070B504460125E06808B9002506E0E068B3
:104C1000022801D1012501E0FDF712F92946D4F857
:104C2000080506F0DCFDD4F8080506F083FD70BD2C
:104C300010B50446D4F8080506F0B2FD10BD10B555
:104C40000446D4F8080506F0B6FD10BD70B504465C
:104C50000D4600BF94F8BC04012801D1022070BDAC
:104C6000012084F8BC0400BF84F83850294620682D
:104C700008F003F900BF002084F8BC0400BF00BFA7
:104C8000EDE710B5044604F2C441D4F8080506F077
:104C9000BDFD10BD70B50446256800BF94F8BC0486
:104CA000012801D1022070BD012084F8BC0400BF9E
:104CB000A06A012806D1A069012803D0A86B40F49E
:104CC0008030A863206807F0BFFF206807F0D0FAA3
:104CD00000BF002084F8BC0400BF00BFE3E7000071
:104CE00010B50446D4F8080506F0EDFD2068D0F8AC
:104CF000000E40F001002168C1F8000E206A28B1C2
:104D00000348006840F006000149086010BD00003B
:104D100010ED00E070B5044615480068C0F380004F
:104D200048B91348006800F00700A04201D00120F4
:104D300070BD0020FCE70E48006820F0070020430B
:104D40000B490860FEF75EFF054607E0FEF75AFFD5
:104D5000401BB0F57A7F01D90120E9E70448083803
:104D60000068C0F340300028F0D00020E0E70000E9
:104D70000C4802580348006840F080700149086000
:104D8000704700000C48025810B501F06FF9054952
:104D90000968C1F30211044A515C01F01F01C840C7
:104DA00010BD00002044025808E5000870B5014617
:104DB000844D2D6805F00303824D2D68C5F3053041
:104DC000804D2D1D2D68C5F300147E4D14352D68C2
:104DD000C5F3CC0515FB04F501EE105AB8EE411AE7
:104DE000F0EE410A00286FD023B1012B4ED0022BE8
:104DF0006BD16BE0734D283D2D68C5F340153DB375
:104E0000704D283D2D68C5F3C1066F4D25FA06F299
:104E100001EE102AF8EE411A01EE100AB8EE411A1E
:104E200081EE812A9FED691AC0EE811A654D103519
:104E30002D68C5F3080501EE105AB8EE411A31EE9F
:104E4000811AF7EE001A31EE211A22EE010A1CE057
:104E500001EE100AB8EE411ADFED5D1A81EE812AEB
:104E60009FED5A1AC0EE811A564D10352D68C5F3C4
:104E7000080501EE105AB8EE411A31EE811AF7EE2C
:104E8000001A31EE211A22EE010A5BE001EE100A4F
:104E9000B8EE411ADFED4F1A81EE812A9FED4B1AD1
:104EA000C0EE811A474D10352D68C5F3080501EE97
:104EB000105AB8EE411A31EE811AF7EE001A31EEAF
:104EC000211A22EE010A3DE077E01DE001EE100A12
:104ED000B8EE411A9FED402AC2EE011A9FED3B1A2F
:104EE00080EE812A374D10352D68C5F3080501EE97
:104EF000105AB8EE411A32EE011AB7EE002A31EE1E
:104F0000021A21EE810A1DE001EE100AB8EE411AE4
:104F1000DFED301A81EE812A9FED2C1AC0EE811A46
:104F2000284D10352D68C5F3080501EE105AB8EE6E
:104F3000411A31EE811AF7EE001A31EE211A22EEF3
:104F4000010A00BF00BF1F4D10352D68C5F346256F
:104F500001EE105AB8EE411AF7EE001A31EE211A9E
:104F6000C0EE011ABCEEE11A81ED001A154D1035A4
:104F70002D68C5F3064501EE105AB8EE411AF7EE5A
:104F8000001A31EE211AC0EE011ABCEEE11A81EDD1
:104F9000011A0C4D10352D68C5F3066501EE105A47
:104FA000B8EE411AF7EE001A31EE211AC0EE011ADE
:104FB000BCEEE11A81ED021A03E000250D604D60A0
:104FC0008D6070BD284402580090D0030000004658
:104FD0000024744C0024744A20BCBE4B70B50146BA
:104FE000844D2D6805F00303824D2D68C5F30550EF
:104FF000804D2D1D2D68C5F300247E4D1C352D6878
:10500000C5F3CC0515FB04F501EE105AB8EE411AB4
:10501000F0EE410A00286FD023B1012B4ED0022BB5
:105020006BD16BE0734D283D2D68C5F340153DB342
:10503000704D283D2D68C5F3C1066F4D25FA06F267
:1050400001EE102AF8EE411A01EE100AB8EE411AEC
:1050500081EE812A9FED691AC0EE811A654D1835DF
:105060002D68C5F3080501EE105AB8EE411A31EE6D
:10507000811AF7EE001A31EE211A22EE010A1CE025
:1050800001EE100AB8EE411ADFED5D1A81EE812AB9
:105090009FED5A1AC0EE811A564D18352D68C5F38A
:1050A000080501EE105AB8EE411A31EE811AF7EEFA
:1050B000001A31EE211A22EE010A5BE001EE100A1D
:1050C000B8EE411ADFED4F1A81EE812A9FED4B1A9F
:1050D000C0EE811A474D18352D68C5F3080501EE5D
:1050E000105AB8EE411A31EE811AF7EE001A31EE7D
:1050F000211A22EE010A3DE077E01DE001EE100AE0
:10510000B8EE411A9FED402AC2EE011A9FED3B1AFC
:1051100080EE812A374D18352D68C5F3080501EE5C
:10512000105AB8EE411A32EE011AB7EE002A31EEEB
:10513000021A21EE810A1DE001EE100AB8EE411AB2
:10514000DFED301A81EE812A9FED2C1AC0EE811A14
:10515000284D18352D68C5F3080501EE105AB8EE34
:10516000411A31EE811AF7EE001A31EE211A22EEC1
:10517000010A00BF00BF1F4D18352D68C5F3462535
:1051800001EE105AB8EE411AF7EE001A31EE211A6C
:10519000C0EE011ABCEEE11A81ED001A154D18356A
:1051A0002D68C5F3064501EE105AB8EE411AF7EE28
:1051B000001A31EE211AC0EE011ABCEEE11A81ED9F
:1051C000011A0C4D18352D68C5F3066501EE105A0D
:1051D000B8EE411AF7EE001A31EE211AC0EE011AAC
:1051E000BCEEE11A81ED021A03E000250D604D606E
:1051F0008D6070BD284402580090D0030000004626
:105200000024744C0024744A20BCBE4B2DE9F041AC
:1052100004460025A846206800F00060B0F1006F49
:1052200030D1206E48B1B0F5801F0DD0B0F5001F11
:1052300010D0B0F5401F15D113E0F748006840F4D6
:105240000030F54908600FE00221201D03F0E6FD63
:10525000054609E0022104F1240003F091FE054611
:1052600002E001E0012500BF00BF55B9EA48243043
:10527000006820F44010216E0843E749243108609B
:1052800000E0A846208800F48070B0F5807F2DD122
:10529000606D05281AD2DFE800F0030A1017180025
:1052A000DD48006840F40030DB49086010E0002170
:1052B000201D03F0B3FD05460AE0002104F124009F
:1052C00003F05EFE054603E002E001E0012500BFB9
:1052D00000BF55B9D0482430006820F00700616D48
:1052E0000843CD492431086000E0A846208800F436
:1052F0008060B0F5806F3CD1D4F8A000B0F5C00F4D
:1053000023D007DC68B1B0F5001F11D0B0F5800FD5
:105310001ED113E0B0F5000F18D0B0F5200F17D153
:1053200015E0BD48006840F40030BB49086011E05A
:105330000021201D03F072FD05460BE0002104F161
:10534000240003F01DFE054604E003E002E001E056
:10535000012500BF00BF5DB9AF482C30006820F4C4
:105360006000D4F8A0100843AB492C31086000E07D
:10537000A846208800F40060B0F5006F3CD1D4F856
:10538000A400B0F1407F23D007DC68B1B0F1807F8A
:1053900011D0B0F1007F1ED113E0B0F1806F18D0B2
:1053A000B0F1A06F17D115E09B48006840F40030C1
:1053B0009949086011E00021201D03F02FFD0546EA
:1053C0000BE0002104F1240003F0DAFD054604E0BF
:1053D00003E002E001E0012500BF00BF5DB98E4897
:1053E0002C30006820F0E060D4F8A41008438A490B
:1053F0002C31086000E0A846206800F00070B0F191
:10540000007F27D1A06CA0B1102804D0202809D09B
:1054100030280FD10CE08048006840F400307E490D
:10542000086009E00221201D03F0F8FC054603E0B6
:1054300002E001E0012500BF00BF55B976482030E9
:10544000006820F03000A16C0843734920310860E7
:1054500000E0A846208800F48050B0F5805F36D187
:10546000A06DB0F5005F19D004DC50B1B0F5805FDD
:105470001DD10DE0B0F5405F17D0B0F5804F16D1CB
:1054800014E06548006840F400306349086010E0AB
:105490000021201D03F0C2FC05460AE0002104F1B2
:1054A000240003F06DFD054603E002E001E0012564
:1054B00000BF00BF55B958482430006820F4E040D0
:1054C000A16D084354492431086000E0A8462088B3
:1054D00000F40050B0F5005F34D1E06DB0F5403F0E
:1054E0001DD007DC68B1B0F5803F0BD0B0F5003FB0
:1054F00018D10DE0B0F5802F12D0B0F5A02F11D14A
:105500000FE011E00121201D03F088FC05460BE0AF
:10551000012104F1240003F033FD054604E003E01B
:1055200002E001E0012500BF00BF55B93A48243030
:10553000006820F4E020E16D084337492431086019
:1055400000E0A846208800F48040B0F5804F36D1B6
:10555000D4F8A800B0F1405F1DD007DC68B1B0F10D
:10556000805F0BD0B0F1005F18D10DE0B0F1804F3B
:1055700012D0B0F1A04F11D10FE011E00121201D98
:1055800003F04CFC05460BE0012104F1240003F07C
:10559000F7FC054604E003E002E001E0012500BF5E
:1055A00000BF5DB91C482C30006820F0E040D4F802
:1055B000A810084318492C31086000E0A84620884C
:1055C00000F40040B0F5004F29D1A06E98B1B0F1C1
:1055D000805F03D0B0F1005F0ED106E00E48006896
:1055E00040F400300C49086008E00121201D03F060
:1055F00015FC054602E001E0012500BF00BF6DB9C2
:1056000005482430006820F04050A16E084302494C
:105610002431086003E000002C440258A8462068AA
:1056200000F08070B0F1807F27D1606CA0B10128BC
:1056300004D0022809D003280FD10CE0FE480068EE
:1056400040F40030FC49086009E00221201D03F00D
:10565000E5FB054603E002E001E0012500BF00BFD5
:1056600055B9F5482030006820F00300616C08430C
:10567000F1492031086000E0A846206800F480006D
:10568000B0F5800F7DD1ED48006840F48070EB49A3
:105690000860FEF7B7FA064606E0FEF7B3FA801B8D
:1056A000642801D9032505E0E448006800F480700F
:1056B0000028F2D000BF85BBDF484430006800F40A
:1056C0004070B4F8AC1001F44071884213D0DA484D
:1056D0004430006820F44077D7484430006840F4F4
:1056E0008030D549443108600846006820F4803095
:1056F000086008460760D4F8AC00B0F5807F15D18B
:10570000FEF780FA064609E0FEF77CFA801B41F2BC
:105710008831884202D9032507E035E0C648443085
:105720000068C0F340000028EED000BF55BB00BFAA
:10573000B4F8AC0000F44070B0F5407F0ED1BE4824
:105740001C38006820F47C51BD4AD4F8AC001040ED
:1057500041EA1010B8491C39086007E0B6481C3807
:10576000006820F47C50B4491C390860B2484430C9
:105770000068B4F8AC10C1F30B010843AE494431E2
:10578000086002E0A84600E0A846207800F001008A
:1057900068B3606F182819D005DC48B1082808D014
:1057A000102816D10BE0202811D0282811D10FE0A5
:1057B00011E00121201D03F031FB05460BE0012122
:1057C00004F1240003F0DCFB054604E003E002E002
:1057D00001E0012500BF00BF55B997482830006897
:1057E00020F03800616F084393492831086000E0D9
:1057F000A846207800F00200022828D1206F062851
:1058000015D2DFE800F003040A11121311E00121A0
:10581000201D03F003FB05460BE0012104F12400E9
:1058200003F0AEFB054604E003E002E001E00125E1
:1058300000BF00BF55B980482830006820F007003D
:10584000216F08437C492831086000E0A846207891
:1058500000F0040004282AD1D4F88C00062815D2C0
:10586000DFE800F003040A11121311E00121201DEA
:1058700003F0D4FA05460BE0012104F1240003F003
:105880007FFB054604E003E002E001E0012500BFE4
:1058900000BF5DB968482C30006820F00700D4F8DC
:1058A0008C10084364492C31086000E0A846207839
:1058B00000F02000202836D1D4F88800B0F1405FF5
:1058C0001DD007DC68B1B0F1805F0BD0B0F1005F94
:1058D00018D10DE0B0F1804F12D0B0F1A04F11D12E
:1058E0000FE011E00021201D03F098FA05460BE0BF
:1058F000022104F1240003F043FB054604E003E029
:1059000002E001E0012500BF00BF5DB94A48283030
:10591000006820F0E040D4F8881008434649283158
:10592000086000E0A846207800F04000402836D10A
:10593000D4F89400B0F5406F1DD007DC68B1B0F525
:10594000806F0BD0B0F5006F18D10DE0B0F5805F1F
:1059500012D0B0F5A05F11D10FE011E00021201DA1
:1059600003F05CFA05460BE0022104F1240003F089
:1059700007FB054604E003E002E001E0012500BF6B
:1059800000BF5DB92C482C30006820F4E050D4F8FA
:105990009410084328492C31086000E0A84620787C
:1059A00000F08000802836D1D4F89800B0F5C04FC0
:1059B0001DD007DC68B1B0F5005F0BD0B0F5804FAB
:1059C00018D10DE0B0F5004F12D0B0F5204F11D135
:1059D0000FE011E00021201D03F020FA05460BE046
:1059E000022104F1240003F0CBFA054604E003E0B1
:1059F00002E001E0012500BF00BF5DB90E482C3078
:105A0000006820F46040D4F8981008430A492C310B
:105A1000086000E0A846207800F0080008281BD1A4
:105A2000E06FB0F5805F0FD1022104F1240003F094
:105A3000A7FA48B106E000002C440258004802587A
:105A4000FFFCFF0F4FF00108A448006820F440500D
:105A5000E16F0843A1490860207800F01000102889
:105A600017D1D4F89000B0F5807F07D1022104F15E
:105A7000240003F085FA08B14FF001089748001D93
:105A8000006820F44070D4F8901008439349091D31
:105A90000860206800F40020B0F5002F28D1D4F869
:105AA0009C0030B1B0F5803F09D0B0F5003F0ED179
:105AB0000CE00021201D03F0B1F9054609E00221A8
:105AC00004F1240003F05CFA054602E001E0012540
:105AD00000BF00BF5DB98148001D006820F4403060
